:0400000041EF00F0DC
:1000080000C015F0F2A202D0162AF292F0A009D090
:10001800800E010A006E800E1618005CD8A0160625
:08002800F09015C000F011007A
:10003000FF0E1F6EFF0E206EFF0E216EFF0E226E52
:10004000600E1B6E000E1C6E230E1D6E000E1E6ECB
:10005000949E93929380C66A400EC76EC68A120021
:1000600023C0C9FFC7B002D00000FCD7C9CF00F041
:0200700012007C
:100072000900F5CFE6FF0006FBE10106F9E11200F7
:10008200010E166EFF0E936E946A826AD0DF020E24
:100092000B6E040E0C6EBA0E0D6E0D2EFED70C2ECC
:1000A200FCD70B2EFAD70000F19EF292F18CF28867
:1000B200F28E9382F29CD09EF18AF090F086F28EBC
:1000C200176A186A800E0F0A006E800E1818005CFC
:1000D20002E11750FF0826E3829018C000F0000EDC
:1000E20018BEFF0E016E0F0E0016000E0116300E26
:1000F2000012000E011200C019F001C01AF000C077
:1001020023F0ADDF17C023F0AADF8280060E0D6E4A
:100112000D2EFED7000016501726000E16BEFF0E3B
:100122001822D0D7FF0E176E0F0E186E800E1818F9
:10013200006E800E005C02E1000E175C26E38290E6
:1001420018C000F0000E18BEFF0E016E0F0E001652
:10015200000E0116300E0012000E011200C019F03E
:1001620001C01AF000C023F07ADF17C023F077DF56
:100172008280060E0D6E0D2EFED700001650175E01
:0E018200000E16BEFF0E185AD1D79AD7FFD71F
:020000040030CA
:0E000000000C1F1EFF8381FF0FC00FE00F409A
:00000001FF
