:04000000FCEF04F01D
:1000080000C018F001C017F00CC016F00DC015F0B4
:10001800060E006EC3CF32F0000E336E005004E0BF
:100028003232329EFF0FFBD7000E336EC4CF00F082
:10003800000E016E00360090013600360090013641
:10004800325000263350012200C032F001C033F094
:1000580076DAFE0E046E270E056E200E066E770EFB
:10006800076E16D900C034F001C035F002C036F072
:1000780003C037F000C038F001C039F002C03AF0D0
:1000880003C03BF0230E3C6E000E3D6EA9DA010E54
:100098004A6E52D8010E386E010E396E230E3A6E32
:1000A800000E3B6E60DA0B0E0B6E260E0C6E5D0EAC
:1000B8000D6E0D2EFED70C2EFCD70B2EFAD7000096
:1000C80000009E9CC28418C000F017C001F016C042
:0800D8000CF015C00DF0110041
:1000E0000F0E0C6E470E0D6E0D2EFED70C2EFCD78C
:0600F000000000001200F8
:0600F600000000001200F2
:0A00FC00210E0D6E0D2EFED712002E
:100106000B820BAE8DEF00F0036802680168006891
:080116000A360232FF0E12004E
:10011E000B840BAE9AEF00F0010E036E026A016AB9
:0A012E00006A0A360232FF0E1200CA
:080138000AAE029E000E120047
:100140004ABE02D0839E01D0838E4ABC02D0839CDB
:1001500001D0838C4ABA02D0839A01D0838A4AB8EC
:1001600002D0839801D0838831B002D0838401D03B
:1001700083948386C0DF83964AB602D0839E01D0E3
:10018000838E4AB402D0839C01D0838C4AB202D0C1
:10019000839A01D0838A4AB002D0839801D08388A1
:1001A00031B002D0838401D083948386A4DF839608
:0C01B00031A002D095DF01D0A1DF1200C9
:0E01BC00026A016A006A086A036A000E1200F5
:1001CA000A6A0350D8A40A800750D8A40A820A509F
:1001DA00D8B448EF01F0030AD8B401EF01F00AB02D
:1001EA00FCEF00F006AE46EF01F044EF01F002AE7C
:1001FA0044EF01F046EF01F00250800B0A6E029EB6
:10020A000650800B069E0A18D8B412EF01F00A5065
:10021A00D8B444EF01F046EF01F00750035CD8B4BC
:10022A001CEF01F0D8A038EF01F03EEF01F00650C4
:10023A00025CD8B426EF01F0D8A038EF01F03EEF07
:10024A0001F00550015CD8B430EF01F0D8A038EFC6
:10025A0001F03EEF01F00450005CD8B448EF01F021
:10026A00D8B03EEF01F00A52D8B446EF01F044EF9D
:10027A0001F00A52D8B444EF01F046EF01F0D880F9
:0E028A001200D8901200D880D8841200120002
:10029800086A096A000E07620364D1EF01F0025090
:1002A80006180A6E075003267E0ED8A062EF01F0EA
:1002B800035ED8B0D5EF01F066EF01F0035ED8A079
:1002C800D9EF01F0028E068E02C00EF001C00BF0CD
:1002D80000C00DF000500402F4CF0CF001500502EC
:1002E800F4CF00F0F3CF08F00402F3500C26F450DA
:1002F8000822000E00220D500502F3500C26F4507F
:100308000822000E002202500402F3500826F4507E
:10031800002202500502016A000E0122F350002655
:10032800F45001220D500602F3500826F450002222
:10033800026A000E012202220B500602F350002628
:10034800F4500122000E02220E500602F35001263C
:10035800F450022202BEB9EF01F008360036013629
:1003680002360306D8B4D9EF01F0CCEF01F0D880FB
:10037800800E08640030000E002201220222D8A05C
:10038800CCEF01F0023201320032034AD5EF01F01E
:100398000AAE029E000EDBEF01F0010E0BDFDBEF71
:1003A80001F0020EACDEDBEF01F0040EB4DE120049
:0C03B800319046C04AF0C0DE31801200D7
:1003C400086A080E0C6E003408360450085ED8B073
:0E03D40002D00826D89000360C2EF5D7120065
:1003E2000C6A0E6A0250D8A40AEF02F001C002F0B1
:1003F20000C001F0006A0E860250D8A40AEF02F093
:1004020001C002F0016A0E960E880250D8B41CEFA9
:1004120002F00E50035ED8A4D8A021EF02F0D890CB
:1004220002BE26EF02F0003601360236032E11EF2D
:1004320002F021EF02F0010E0C6EBFDE29EF02F096
:10044200020E0C6E6BDE29EF02F0040E0C6E73DEF0
:02045200120096
:1004540046C004F047C005F004C002F005C003F034
:10046400044A052A48C000F049C001F0484A492A14
:1004740000C0E9FF01C0EAFF02C0E1FF03C0E2FFE0
:10048400EECFE6FF02C0E9FF03C0EAFFEE5201E04F
:0C049400E3D746C000F047C001F01200A2
:1004A0000900F5CFE6FF0006FBE10106F9E11200C5
:1004B000959695949598959A959C959E83968394F8
:1004C000839E839C839A83980BDE0ADE09DE838AEF
:1004D0008388838610DE839603DE83860CDE839614
:1004E000FFDD838608DE8396FBDD8398838603DE4B
:1004F0008396F6DD8386FFDD8396839A838E8386DB
:10050000FADD8396EDDD839E83888386F4DD839612
:1005100083988386F0DD8396E3DD8386ECDD839626
:1005200083888386E8DD8396DBDD83988386E3DD3D
:100530008396838E838C838A83888386DCDD83968F
:06054000CFDD3180120046
:100546000050086E0150006E016A026A036A0B6A67
:100556000C6A960E036E0A6A00C001F008C000F02D
:08056600086A026A3BDF120083
:10056E000FD0800E386E19D0C00E386E16D0940E85
:10057E00386E13D0D40E386E10D0800E386E0DD06B
:10058E003850010AEEE03850020AEEE03850030A05
:10059E00EEE03850040AEEE0F0D73904006E385021
:1005AE00002600C038F000C04AF0C3DD31903C6A2E
:1005BE003C503A24E96E000E3B20EA6EEE520BE000
:1005CE003C503A24E96E000E3B20EA6EEECF46F028
:0A05DE00ECDE3C2AEDD7318012005C
:1005E800446A456A38C040F039C041F03AC042F028
:1005F8003BC043F04350FF0A08E14250FF0A05E1BF
:100608004150FF0A02E14050FF0A0CE13CC046F0AD
:100618003DC047F0190E486E000E496E17DF030EF5
:10062800006EE5D1010E3E6E42AE0ED0800E42182D
:10063800006E00C042F03E2A3CC0E1FF3DC0E2FF30
:100648002D0EE66E3C4A3D2A000E006E431808E166
:100658000050421805E10050411802E14050000ADC
:100668000BE13CC046F03DC047F01D0E486E000E41
:10067800496EECDE006ABBD14350FF0A08E14250E4
:10068800000A05E14150000A02E14050000A0CE16D
:100698003CC046F03DC047F01F0E486E000E496E44
:1006A800D5DE3EC000F0A3D1000E046E000E056E2C
:1006B800000E066E7F0E076E40C000F041C001F0CC
:1006C80042C002F043C003F07CDD010ED8B0000E3A
:1006D800006E00521BE040C000F041C001F042C073
:1006E80002F043C003F0000E046E000E056E200EEB
:1006F800066E820E076ECCDD00C040F001C041F0EE
:1007080002C042F003C043F04506CED7000E046E87
:10071800000E056E200E066E820E076E40C000F0B9
:1007280041C001F042C002F043C003F04ADD000EB0
:10073800D8B0010E006E00521BE040C000F041C06E
:1007480001F042C002F043C003F0CD0E046ECC0E9F
:10075800056E4C0E066E7B0E076E9ADD00C040F0EB
:1007680001C041F002C042F003C043F0452ACED791
:10077800FF0E4014086EFF0E4114096E7F0E4214DE
:100788000A6E000E43140B6E08C004F009C005F091
:100798000AC006F00BC007F004360490053606368A
:1007A8000736000E4014006E000E4114016E000E54
:1007B8004214026EFF0E4314036E00C040F001C0E5
:1007C80041F002C042F003C043F004504010006EF4
:1007D80005504110016E06504210026E075043103A
:1007E800036E00C040F001C041F002C042F003C0F7
:1007F80043F07F0E435C006E00C03FF0010E436E75
:1008080000C004F040C000F041C001F042C002F056
:1008180043C003F0045007E000360090013602366A
:100828000336FF0FF8D700C040F001C041F002C006
:1008380042F003C043F03CC0E1FF3DC0E2FF43503B
:10084800300FE66E3C4A3D2A800E4518006E800E39
:10085800010A005C08E3800E060A006E800E451847
:10086800005C01E30AD03CC0E1FF3DC0E2FF2E0E70
:10087800E66E3C4A3D2A010E446E060E3F6E3F501E
:10088800000A54E0436A40C000F041C001F042C091
:1008980002F043C003F000360090013602360336FA
:1008A800003600900136023603364050002641508B
:1008B8000122425002224350032200C040F001C0EE
:1008C80041F002C042F003C043F040C000F041C014
:1008D80001F042C002F043C003F000360090013638
:1008E8000236033600C040F001C041F002C042F0B9
:1008F80003C043F03CC0E1FF3DC0E2FF4350300F6E
:10090800E66E3C4A3D2A4450000A0EE14506455031
:10091800000A0AE13CC0E1FF3DC0E2FF2E0EE66E90
:100928003C4A3D2A010E446E3F06A9D7FF0E3C24DF
:10093800E96EFF0E3D20EA6EEE50300A05E1010E29
:100948003C5E000E3D5AF2D7FF0E3C24E96EFF0EC6
:100958003D20EA6EEE502E0A04E1010E3C5E000EC8
:100968003D5A4550000A3DE03CC0E1FF3DC0E2FF72
:10097800650EE66E3C4A3D2A800E4518006E800ED4
:10098800000A005C0BE23CC0E1FF3DC0E2FF2D0E17
:10099800E66E3C4A3D2A45500008456E45C03FF08A
:1009A800455009080EE20A0E046E3FC000F006DD4D
:1009B8003CC0E1FF3DC0E2FF0050300FE66E3C4A0C
:1009C8003D2A0A0E046E3FC000F0F8DC08C000F0B3
:1009D8003CC0E1FF3DC0E2FF0050300FE66E3C4AEC
:1009E8003D2A3CC0E1FF3DC0E2FFE66A006A120012
:1009F80016EC05F0010E926E806A56DDC36AC46A71
:100A0800F19E0E0EC16E450EC26E9E9C9D8C9F9CE3
:0A0A1800F28CF28EC284FFD7FFD7E4
:100A2C0010EE19F00A0E006E010E016E220EF66E1B
:0E0A3C000A0EF76E000EF86E50EC02F012007B
:040A22004E614E00D3
:020A260030009E
:040A2800494E4600ED
:020000040030CA
:0D000100220F0EFF0181FF0FC00FE00F4026
:00000001FF
