:040000001CEF01F000
:1000080000C015F01650000A4AE18292020E0B6EEB
:10001800040E0C6EBA0E0D6E0D2EFED70C2EFCD7EC
:100028000B2EFAD700008286020E0B6E040E0C6EA1
:10003800BA0E0D6E0D2EFED70C2EFCD70B2EFAD74E
:1000480000008294020E0B6E040E0C6EBA0E0D6E3A
:100058000D2EFED70C2EFCD70B2EFAD7000082806F
:10006800020E0B6E040E0C6EBA0E0D6E0D2EFED720
:100078000C2EFCD70B2EFAD700008296020E0B6EC0
:10008800040E0C6EBA0E0D6E0D2EFED70C2EFCD77C
:100098000B2EFAD700008282010E166EBDD0829216
:1000A800020E0B6E040E0C6EBA0E0D6E0D2EFED7E0
:1000B8000C2EFCD70B2EFAD700008286020E0B6E90
:1000C800040E0C6EBA0E0D6E0D2EFED70C2EFCD73C
:1000D8000B2EFAD700008290020E0B6E040E0C6EE7
:1000E800BA0E0D6E0D2EFED70C2EFCD70B2EFAD79E
:1000F80000008284020E0B6E040E0C6EBA0E0D6E9A
:100108000D2EFED70C2EFCD70B2EFAD700008296A8
:10011800020E0B6E040E0C6EBA0E0D6E0D2EFED76F
:100128000C2EFCD70B2EFAD700008282010E166E19
:100138008294020E0B6E040E0C6EBA0E0D6E0D2E0E
:10014800FED70C2EFCD70B2EFAD700008280020EA9
:100158000B6E040E0C6EBA0E0D6E0D2EFED70C2E05
:10016800FCD70B2EFAD700008292020E0B6E040EFB
:100178000C6EBA0E0D6E0D2EFED70C2EFCD70B2E64
:10018800FAD700008286020E0B6E040E0C6EBA0EB1
:100198000D6E0D2EFED70C2EFCD70B2EFAD70000B5
:1001A8008290020E0B6E040E0C6EBA0E0D6E0D2EA2
:1001B800FED70C2EFCD70B2EFAD700008284010E36
:1001C800166E8296020E0B6E040E0C6EBA0E0D6E33
:1001D8000D2EFED70C2EFCD70B2EFAD700008282EC
:1001E800020E0B6E040E0C6EBA0E0D6E0D2EFED79F
:1001F8000C2EFCD70B2EFAD700008294020E0B6E41
:10020800040E0C6EBA0E0D6E0D2EFED70C2EFCD7FA
:100218000B2EFAD700008280F29215C000F0110070
:100228000900F5CFE6FF0006FBE10106F9E112003F
:10023800166A946A826AF19E010E936EF292F18CAC
:10024800F288F28E8280829082828284FFD7FFD7E2
:020000040030CA
:0D000100220F0EFF0181FF0FC00FE00F4026
:00000001FF
