:0400000018EF0AF0FB
:1000080000C018F001C017F00CC016F00DC015F0B4
:10001800F0A20AD04D50080A03E1010E4D6E01D03E
:100028004D2AAFEC08F0F092F2A406D00B0ED76E72
:10003800DC0ED66EF294C2849EAC03D0AFEC08F00E
:100048009E9C18C000F017C001F016C00CF015C037
:040058000DF0110096
:10005C000F0E0C6E470E0D6E0D2EFED70C2EFCD710
:06006C000000000012007C
:0600720000000000120076
:0A007800210E0D6E0D2EFED71200B2
:080082000AAE029E000E1200FE
:10008A000B840BAE50EF00F0010E036E026A016A98
:0A009A00006A0A360232FF0E12005F
:1000A4000B820BAE5CEF00F0036802680168006825
:0800B4000A360232FF0E1200B1
:1000BC0076BE02D0829E01D0828E76BC02D0829C0B
:1000CC0001D0828C76BA02D0829A01D0828A76B81C
:1000DC0002D0829801D0828854B002D0828401D0A0
:1000EC0082948286C0DF829676B602D0829E01D040
:1000FC00828E76B402D0829C01D0828C76B202D0F1
:10010C00829A01D0828A76B002D0829801D08288FD
:10011C0054B002D0828401D082948286A4DF82966D
:0C012C0054A002D095DF01D0A1DF12002A
:0E013800026A016A006A086A036A000E120079
:100146000A6A0350D8A40A800750D8A40A820A5023
:10015600D8B406EF01F0030AD8B4BFEF00F00AB036
:10016600BAEF00F006AE04EF01F002EF01F002AEC6
:1001760002EF01F004EF01F00250800B0A6E029EBE
:100186000650800B069E0A18D8B4D0EF00F00A502D
:10019600D8B402EF01F004EF01F00750035CD8B4C5
:1001A600DAEF00F0D8A0F6EF00F0FCEF00F0065012
:1001B600025CD8B4E4EF00F0D8A0F6EF00F0FCEF54
:1001C60000F00550015CD8B4EEEF00F0D8A0F6EFD1
:1001D60000F0FCEF00F00450005CD8B406EF01F02C
:1001E600D8B0FCEF00F00A52D8B404EF01F002EFE9
:1001F60001F00A52D8B402EF01F004EF01F0D88002
:0E0206001200D8901200D880D8841200120086
:100214000C6A0E6A0250D8A423EF01F001C002F068
:1002240000C001F0006A0E860250D8A423EF01F04A
:1002340001C002F0016A0E960E880250D8B435EF60
:1002440001F00E50035ED8A4D8A03AEF01F0D89084
:1002540002BE3FEF01F0003601360236032E2AEFCC
:1002640001F03AEF01F0010E0C6E64DF42EF01F091
:10027400020E0C6E08DF42EF01F0040E0C6EFFDE7E
:02028400120066
:080286000B6A0B86FF0E12004B
:0C028E00549072C076F013DF5480120010
:10029A00086A080E0C6E003408360450085ED8B09E
:0E02AA0002D00826D89000360C2EF5D7120090
:1002B80072C004F073C005F004C002F005C003F07A
:1002C800044A052A74C000F075C001F0744A752A02
:1002D80000C0E9FF01C0EAFF02C0E1FF03C0E2FF7E
:1002E800EECFE6FF02C0E9FF03C0EAFFEE5201E0ED
:0C02F800E3D772C000F073C001F01200E8
:100304000CB0C4EF01F00CA26AEF02F00E6A000E0A
:100314000264DBEF01F0F00E0214D8A4A6EF01F0A2
:10032400023A01380F0B02260138F00B016E003837
:100334000F0B01260038F00B006E08380F0B002657
:100344000838F00B086E0E84D89002BEBFEF01F09F
:1003540008360036013602360E2A02BEBFEF01F01F
:1003640008360036013602360E2A02BEBFEF01F00F
:1003740008360036013602360E2A0E50036460EF4A
:1003840002F0035E0BBC08AE65EF02F0D880800E6D
:1003940008640030000E002201220222D8A065EF7A
:1003A40002F0023201320032034A6AEF02F065EFD2
:1003B40002F001C002F000C001F008C000F0086AB9
:1003C400000E0E86026412EF02F0F00E0214D8A49E
:1003D400FAEF01F0023A01380F0B02260138F00B54
:1003E400016E00380F0B01260038F00B006E0E84EE
:1003F400D89002BEBFEF01F00036013602360E2A55
:1004040002BEBFEF01F00036013602360E2A02BEEC
:10041400BFEF01F00036013602360E2ABFEF01F0BD
:1004240001C002F000C001F0006A000E0E960E88B2
:1004340002643FEF02F0F00E0214D8A42AEF02F097
:10044400023A01380F0B02260138F00B016E0E84BC
:10045400D89002BEBFEF01F0013602360E2A02BE6A
:10046400BFEF01F0013602360E2A02BEBFEF01F0E3
:10047400013602360E2ABFEF01F001C002F0016A14
:10048400000E0E8602646FEF02F0F00E0214D8A480
:100494004EEF02F0023A0E84D89002BEBFEF01F094
:1004A40002360E2A02BEBFEF01F002360E2A02BE49
:1004B400BFEF01F002360E2ABFEF01F0010E0C6E01
:1004C400E2DD72EF02F0020E0C6ED9DD72EF02F083
:1004D400040E0C6EE5DD72EF02F0080E0C6E2ADEDF
:0204E400120004
:1004E600086A096A000E07620364F8EF02F0025018
:1004F60006180A6E075003267E0ED8A089EF02F072
:10050600035ED8B0FCEF02F08DEF02F0035ED8A0D8
:1005160000EF03F0028E068E02C00EF001C00BF053
:1005260000C00DF000500402F4CF0CF0015005029B
:10053600F4CF00F0F3CF08F00402F3500C26F45089
:100546000822000E00220D500502F3500C26F4502E
:100556000822000E002202500402F3500826F4502E
:10056600002202500502016A000E0122F350002605
:10057600F45001220D500602F3500826F4500022D2
:10058600026A000E012202220B500602F3500026D8
:10059600F4500122000E02220E500602F3500126EC
:1005A600F450022202BEE0EF02F0083600360136B1
:1005B60002360306D8B400EF03F0F3EF02F0D8805A
:1005C600800E08640030000E002201220222D8A00C
:1005D600F3EF02F0023201320032034AFCEF02F07E
:1005E6000AAE029E000E02EF03F0010EA2DD02EF3C
:1005F60003F0020E54DD02EF03F0040E43DD120099
:10060600706A716A64C06CF065C06DF066C06EF0A9
:1006160067C06FF06F50FF0A08E16E50FF0A05E1F0
:100626006D50FF0A02E16C50FF0A0CE168C072F0DF
:1006360069C073F03D0E746E000E756E3ADE030EE1
:10064600006EE5D1010E6A6E6EAE0ED0800E6E188B
:10065600006E00C06EF06A2A68C0E1FF69C0E2FF62
:100666002D0EE66E684A692A000E006E6F1808E1C4
:1006760000506E1805E100506D1802E16C50000A3A
:100686000BE168C072F069C073F02F0E746E000E35
:10069600756E0FDE006ABBD16F50FF0A08E16E501F
:1006A600000A05E16D50000A02E16C50000A0CE1F7
:1006B60068C072F069C073F0310E746E000E756E0C
:1006C600F8DD6AC000F0A3D1000E046E000E056EC0
:1006D600000E066E7F0E076E6CC000F06DC001F056
:1006E6006EC002F06FC003F02BDD010ED8B0000E15
:1006F600006E00521BE06CC000F06DC001F06EC0D1
:1007060002F06FC003F0000E046E000E056E200EA0
:10071600066E820E076EE4DE00C06CF001C06DF05E
:1007260002C06EF003C06FF07106CED7000E046EE5
:10073600000E056E200E066E820E076E6CC000F06F
:100746006DC001F06EC002F06FC003F0F9DC000E60
:10075600D8B0010E006E00521BE06CC000F06DC0F8
:1007660001F06EC002F06FC003F0CD0E046ECC0E29
:10077600056E4C0E066E7B0E076EB2DE00C06CF088
:1007860001C06DF002C06EF003C06FF0712ACED7C3
:10079600FF0E6C14086EFF0E6D14096E7F0E6E143C
:1007A6000A6E000E6F140B6E08C004F009C005F047
:1007B6000AC006F00BC007F004360490053606366C
:1007C6000736000E6C14006E000E6D14016E000EDE
:1007D6006E14026EFF0E6F14036E00C06CF001C043
:1007E6006DF002C06EF003C06FF004506C10006E26
:1007F60005506D10016E06506E10026E07506F1098
:10080600036E00C06CF001C06DF002C06EF003C054
:100816006FF07F0E6F5C006E00C06BF0010E6F6EA6
:1008260000C004F06CC000F06DC001F06EC002F0B4
:100836006FC003F0045007E0003600900136023620
:100846000336FF0FF8D700C06CF001C06DF002C090
:100856006EF003C06FF068C0E1FF69C0E2FF6F5041
:10086600300FE66E684A692A800E7118006E800E97
:10087600010A005C08E3800E060A006E800E7118FD
:10088600005C01E30AD068C0E1FF69C0E2FF2E0EFA
:10089600E66E684A692A010E706E060E6B6E6B5024
:1008A600000A54E06F6A6CC000F06DC001F06EC0C3
:1008B60002F06FC003F000360090013602360336B0
:1008C600003600900136023603366C5000266D5015
:1008D60001226E5002226F50032200C06CF001C04C
:1008E6006DF002C06EF003C06FF06CC000F06DC01A
:1008F60001F06EC002F06FC003F0003600900136C2
:100906000236033600C06CF001C06DF002C06EF016
:1009160003C06FF068C0E1FF69C0E2FF6F50300F9F
:10092600E66E684A692A7050000A0EE17106715037
:10093600000A0AE168C0E1FF69C0E2FF2E0EE66E1A
:10094600684A692A010E706E6B06A9D7FF0E6824E5
:10095600E96EFF0E6920EA6EEE50300A05E1010EDF
:10096600685E000E695AF2D7FF0E6824E96EFF0E24
:100976006920EA6EEE502E0A04E1010E685E000E52
:10098600695A7150000A3DE068C0E1FF69C0E2FFA4
:10099600650EE66E684A692A800E7118006E800E32
:1009A600000A005C0BE268C0E1FF69C0E2FF2D0EA1
:1009B600E66E684A692A71500008716E71C06BF064
:1009C600715009080EE20A0E046E6BC000F062DC7C
:1009D60068C0E1FF69C0E2FF0050300FE66E684A6A
:1009E600692A0A0E046E6BC000F054DC08C000F0E1
:1009F60068C0E1FF69C0E2FF0050300FE66E684A4A
:100A0600692A68C0E1FF69C0E2FFE66A006A12006F
:100A16000050086E0150006E016A026A036A0B6A92
:100A26000C6A960E036E0A6A00C001F008C000F058
:0A0A3600086A026A0AEC01F01200DF
:100A4000666A66506424E96E000E6520EA6EEE5216
:100A50000BE066506424E96E000E6520EA6EEECF6E
:0A0A600072F015DC662AEDD71200D3
:100A6A000450000A12E10550000A0FE10650000A7C
:100A7A000CE10750000A09E1FF0E006EFF0E016E3D
:100A8A007F0E026EFF0E036EA8D0086A096A07502D
:100A9A00D8B4E0EF05F00350D8B4E5EF05F0025002
:100AAA0006180A6E028E068E0E6A02C008F001C08F
:100ABA000CF000C00DF004500D5E0550D8A0053CA6
:100ACA000C5E0650D8A0063C085E086A0C6A0D6ADD
:100ADA00D8A077EF05F0D8900232013200320832FE
:100AEA00010E0E6E0750035ED8A084EF05F07E0E4D
:100AFA000E240326D8B0EAEF05F08AEF05F07E0E41
:100B0A000E240326D8A0EFEF05F0180E0B6E0D3653
:100B1A000C3608360036013602360E360450005EB0
:100B2A000550D8A0053C015E0650D8A0063C025EDE
:100B3A0006340E120EA0A5EF05F00D80B0EF05F0F9
:100B4A00045000260550D8B0053C01260650D8B0FE
:100B5A00062802260D900B2E8CEF05F0D6EF05F035
:100B6A00D8900036013602360E360450005E055023
:100B7A00D8A0053C015E0650D8A0063C025E0634A9
:100B8A000E10010B0D26D8B00C2AD8B4082AD8A406
:100B9A00D6EF05F008320C320D32032AD8B4EAEF48
:100BAA0005F00AAE089E0850026E0C50016E0D50F8
:100BBA00006EF2EF05F0010E43EC01F0F2EF05F0E2
:100BCA00020E9CEC00F0F2EF05F0040E52EC00F07D
:0C0BDA00F2EF05F0080E45EC00F01200F0
:100BE600025006180E6E086A096A0B6A03500764FB
:100BF600E6EF06F006500A6E068E028E03500B6E66
:100C06000750036E000E0B6436EF06F00B50075EBE
:100C1600D8B4D7EF06F0070E0764A5EF06F0075E17
:100C260000C008F001C000F002C001F0026A074EE1
:100C3600D7EF06F007647AEF06F0075E00C008F00B
:100C460001C000F0016A074ED7EF06F0076458EFBF
:100C560006F0075E00C008F0006A074ED7EF06F000
:100C660007643FEF06F00AC002F005C001F004C0B9
:100C760000F0086A03EF08F0030E07644AEF06F077
:100C8600075E08380F0B086E074ED7EF06F0D890B0
:100C96000832074ED7EF06F0D8900832074ED7EF46
:100CA60006F0D8900832D7EF06F0030E076469EF16
:100CB60006F0075E08380F0B086E0038F00B0826A2
:100CC60000380F0B006E074ED7EF06F0D8900032B3
:100CD6000832074ED7EF06F0D89000320832074E9A
:100CE600D7EF06F0D89000320832D7EF06F0030EA1
:100CF600076491EF06F0075E08380F0B086E0038A0
:100D0600F00B082600380F0B006E0138F00B00269A
:100D160001380F0B016E074ED7EF06F0D89001325F
:100D260000320832074ED7EF06F0D8900132003273
:100D36000832074ED7EF06F0D8900132003208325B
:100D4600D7EF06F0030E0764C2EF06F0075E083819
:100D56000F0B086E0038F00B082600380F0B006EDC
:100D66000138F00B002601380F0B016E0238F00B2C
:100D7600012602380F0B026E074ED7EF06F0D89009
:100D86000232013200320832074ED7EF06F0D89011
:100D96000232013200320832074ED7EF06F0D89001
:100DA6000232013200320832096A000E0EAECBEF73
:100DB60007F0081E001E011E021E082A002201223C
:100DC6000222CBEF07F00750D8A4ECEF06F003EFB2
:100DD60008F0096A02C00AF0028E068E0750035C0C
:100DE600076ED8B4BEEF07F0070E07648CEF07F066
:100DF600075E0450096E0550046E0650056E066ABD
:100E0600074EBEEF07F0070E076461EF07F0075EB7
:100E16000450096E0550046E056A074EBEEF07F0D2
:100E2600070E07643FEF07F0075E0450096E046A79
:100E3600074EBEEF07F0070E076426EF07F00AC05D
:100E460002F003EF08F0030E076431EF07F0075EC8
:100E560009380F0B096E074EBEEF07F0D89009321E
:100E6600074EBEEF07F0D8900932074EBEEF07F0E7
:100E7600D8900932BEEF07F0030E076450EF07F073
:100E8600075E09380F0B096E0438F00B0926043883
:100E96000F0B046E074EBEEF07F0D89004320932EE
:100EA600074EBEEF07F0D89004320932074EBEEF68
:100EB60007F0D89004320932BEEF07F0030E07643C
:100EC60078EF07F0075E09380F0B096E0438F00B50
:100ED600092604380F0B046E0538F00B0426053876
:100EE6000F0B056E074EBEEF07F0D89005320432A1
:100EF6000932074EBEEF07F0D890053204320932A8
:100F0600074EBEEF07F0D890053204320932BEEF25
:100F160007F0030E0764A9EF07F0075E09380F0B09
:100F2600096E0438F00B092604380F0B046E0538D9
:100F3600F00B042605380F0B056E0638F00B052658
:100F460006380F0B066E074EBEEF07F0D890063236
:100F5600053204320932074EBEEF07F0D89006324A
:100F6600053204320932074EBEEF07F0D89006323A
:100F7600053204320932086A000E0EAECBEF07F0D6
:100F8600091E041E051E061E092A04220522062223
:100F9600095008260450002205500122065002225C
:100FA6000EBEE2EF07F0D8A0F1EF07F002320132F1
:100FB60000320832033EF1EF07F0FDEF07F0D8B03C
:100FC600F7EF07F0000E081E001E011E021E082A7B
:100FD6000022012202220A7EF7EF07F0010E0C6EB4
:100FE60082EC01F005EF08F0020E0C6E82EC01F0C7
:100FF60005EF08F0040E0C6E52EC00F005EF08F059
:06100600000E0C6E12004A
:10100C000FD0800E646E19D0C00E646E16D0940E84
:10101C00646E13D0D40E646E10D0800E646E0DD03E
:10102C006450010AEEE06450020AEEE06450030AD8
:10103C00EEE06450040AEEE0F0D76504006E6450F4
:10104C00002600C064F000C076F05EEC00F0549016
:10105C00686A68506624E96E000E6720EA6EEE52EC
:10106C000CE068506624E96E000E6720EA6EEECF45
:0E107C0072F047EC01F0682AECD754801200A5
:10108A000900F5CFE6FF0006FBE10106F9E11200CF
:10109A00949694949498949A949C949E829682940A
:1010AA00829E829C829A82982EEC00F02EEC00F0AE
:1010BA002EEC00F0828A8288828639EC00F08296D1
:1010CA002EEC00F0828639EC00F082962EEC00F0CD
:1010DA00828639EC00F082962EEC00F082988286A5
:1010EA0039EC00F082962EEC00F0828639EC00F0A2
:1010FA008296829A828E828639EC00F082962EEC53
:10110A0000F0829E8288828639EC00F0829682986C
:10111A00828639EC00F082962EEC00F0828639EC59
:10112A0000F082968288828639EC00F082962EEC54
:10113A0000F08298828639EC00F08296828E828C48
:10114A00828A8288828639EC00F082962EEC00F040
:04115A0054801200AB
:10115E00060E006EC3CF4EF0000E4F6E005004E030
:10116E004E324E9EFF0FFBD7000E4F6EC4CF00F0D7
:10117E00000E016E003600900136003600900136EA
:10118E004E5000264F50012200C04EF001C04FF0CD
:10119E003BDC8F0E046E360E056E5E0E066E7B0EFB
:1011AE00076E73EC02F0000E046E000E056E280E34
:1011BE00066E820E076E10DD00C050F001C051F0B9
:1011CE0002C052F003C053F04D50020A19E1000E56
:1011DE00046E910E056E5C0E066E810E076E50C08B
:1011EE0000F051C001F052C002F053C003F036DCE3
:1011FE0000C050F001C051F002C052F003C053F0D5
:10120E004D50030A19E1660E046EA60E056E4A0EC7
:10121E00066E850E076E50C000F051C001F052C030
:10122E0002F053C003F01ADC00C050F001C051F0C0
:10123E0002C052F003C053F04D50040A1AE1CD0E15
:10124E00046ECC0E056E4C0E066E7B0E076E50C0F5
:10125E0000F051C001F052C002F053C003F035EC63
:10126E0005F000C050F001C051F002C052F003C0B2
:10127E0053F04D50050A1AE18D0E046E7A0E056E6E
:10128E00080E066E7C0E076E50C000F051C001F0C5
:10129E0052C002F053C003F035EC05F000C050F020
:1012AE0001C051F002C052F003C053F04D50060A77
:1012BE001AE16F0E046E120E056E030E066E750E9B
:1012CE00076E50C000F051C001F052C002F053C082
:1012DE0003F035EC05F000C050F001C051F002C033
:1012EE0052F003C053F04D50070A1AE1F80E046E87
:1012FE00130E056E440E066E850E076E50C000F07E
:10130E0051C001F052C002F053C003F035EC05F0AD
:10131E0000C050F001C051F002C052F003C053F0B3
:10132E004D50080A1AE1C30E046EF50E056E1C0E22
:10133E00066E820E076E50C000F051C001F052C012
:10134E0002F053C003F035EC05F000C050F001C0C0
:10135E0051F002C052F003C053F050C064F051C0BF
:10136E0065F052C066F053C067F0560E686E000E00
:10137E00696E03EC03F0010E766E5EEC00F0010E6A
:10138E00646E010E656E560E666E000E676E37DE6B
:10139E004D50010A06E1450E646E000E656E20EC9E
:1013AE0005F04D50020A06E1490E646E000E656EA0
:1013BE0020EC05F04D50030A06E1410E646E000E5E
:1013CE00656E20EC05F04D50040A06E1250E646EA4
:1013DE00000E656E20EC05F04D50050A06E12A0E52
:1013EE00646E000E656E20EC05F04D50060A06E1A7
:1013FE00190E646E000E656E20EC05F04D50070A56
:10140E0006E11E0E646E000E656E20EC05F04D506A
:10141E00080A06E1350E646E000E656E20EC05F0CE
:02142E001200AA
:1014300059EC0AF0010E966E846A2FDEC36AC46A04
:101440009384F29CD09E55B002D0F19801D0F188DF
:10145000F092F088F28EF19E090EC16EAD0EC26E52
:101460009E9C9D8CF28CF28EF294F28A840ED56E44
:0C1470000B0ED76EDC0ED66EFFD7FFD738
:1014B20010EE19F0350E006E010E016E7C0EF66E06
:0E14C200140EF76E000EF86E45EC08F01200E6
:05147C004E2F6D32004F
:071481004B672F636D320081
:051488006D42617200DD
:05148D006D6D486700D1
:02149200300028
:04149400494E460077
:081498006B702F636D5E3200E2
:0414A0004E614E004B
:0414A40041746D0022
:0414A8004B70610024
:0414AC005073690010
:0114B000013A
:020000040030CA
:0D000100220F0EFF0181FF0FC00FE00F4026
:00000001FF
