:040000001CEF00F001
:1000080000C015F0162A1750090AD8B4176A1650F6
:100018000A0A02E1166A172AF29215C000F01100C6
:100028000900F5CFE6FF0006FBE10106F9E1120041
:10003800166A176A3F0E186E060E196E5B0E1A6E58
:100048004F0E1B6E660E1C6E6D0E1D6E7D0E1E6EA7
:10005800070E1F6E7F0E206E670E216E926A956ADC
:10006800030E836EF19E938093928182F292F288BE
:10007800F28E010E806E180EE96E000EEA6E1750B1
:10008800E926000E17BEFF0EEA22EECF83FF820E8E
:100098000C6EDD0E0D6E0D2EFED70C2EFCD700005B
:1000A8000000020E806E180EE96E000EEA6E165001
:1000B800E926000E16BEFF0EEA22EECF83FF820E5F
:1000C8000C6EDD0E0D6E0D2EFED70C2EFCD700002B
:0600D8000000CFD7FFD7A6
:020000040030CA
:0D000100220F0EFF0181FF0FC00FE00F4026
:00000001FF
