:040000002FEF00F0EE
:1000080000C015F0F0A008D0840ED56E0B0ED76E88
:10001800DC0ED66E8280F096F2A40FD00B0ED76E4F
:10002800DC0ED66E164A172A000E171802E1050EC6
:10003800161803E18290D59EF086F090F294827EA5
:0600480015C000F01100DC
:10004E000900F5CFE6FF0006FBE10106F9E112001B
:10005E00166A176A946A826A020E936E816AF29C1D
:10006E00D09EF294F28AD09EF18AF090F086F28EB3
:04007E00FFD7FFD7D2
:020000040030CA
:0D000100220F0EFF0181FF0FC00FE00F4026
:00000001FF
