:1000000016EF00F00000000000EF00F0000000001C
:0A0010000000000000000000F3D71C
:10001C000900F5CFE6FF0006FBE10106F9E112004D
:10002C003F0E156E060E166E5B0E176E4F0E186E8B
:10003C00660E196E6D0E1A6E7D0E1B6E070E1C6E03
:10004C007F0E1D6E670E1E6E1F6A206A216A946AEF
:10005C00956A826A030E836E1F6A800E090A006E0F
:10006C00800E1F18005C3CE3216A800E2118006E84
:10007C00800E190A005C32E2020E836E150EE96ED8
:10008C00000EEA6E2050E926000E20BEFF0EEA227A
:10009C00EECF82FF340E0C6EF10E0D6E0D2EFED7D0
:1000AC000C2EFCD700000000010E836E150EE96EBD
:1000BC00000EEA6E1F50E926000E1FBEFF0EEA224C
:1000CC00EECF82FF340E0C6EF10E0D6E0D2EFED7A0
:1000DC000C2EFCD700000000212AC7D71F2ABDD741
:0E00EC00202A2050060AD8B4206AB6D7FFD7C3
:020000040030CA
:0D000100220F0EFF0181FF0FC00FE00F4026
:00000001FF
