:0400000090EF08F085
:1000080000C018F001C017F00CC016F00DC015F0B4
:10001800F2A20AD02350030A03E1010E236E01D095
:10002800232AD5EC07F0F292F2A406D00D0ED76E73
:10003800080ED66EF294C2849EAC03D0D5EC07F0BD
:100048009E9C18C000F017C001F016C00CF015C037
:040058000DF0110096
:10005C000F0E0C6E470E0D6E0D2EFED70C2EFCD710
:06006C000000000012007C
:0600720000000000120076
:0A007800210E0D6E0D2EFED71200B2
:100082000B820BAE4BEF00F0036802680168006858
:080092000A360232FF0E1200D3
:0E009A00026A016A006A086A036A000E120018
:0800A8000AAE029E000E1200D8
:1000B0004CBE02D0839E01D0838E4CBC02D0839C68
:1000C00001D0838C4CBA02D0839A01D0838A4CB879
:1000D00002D0839801D0838836B002D0838401D0C7
:1000E00083948386C6DF83964CB602D0839E01D06C
:1000F000838E4CB402D0839C01D0838C4CB202D04E
:10010000839A01D0838A4CB002D0839801D083882F
:1001100036B002D0838401D083948386AADF83968D
:0C01200036A002D09BDF01D0A7DF120048
:10012C000B840BAEA1EF00F0010E036E026A016AA4
:0A013C00006A0A360232FF0E1200BC
:100146000A6A0350D8A40A800750D8A40A820A5023
:10015600D8B406EF01F0030AD8B4BFEF00F00AB036
:10016600BAEF00F006AE04EF01F002EF01F002AEC6
:1001760002EF01F004EF01F00250800B0A6E029EBE
:100186000650800B069E0A18D8B4D0EF00F00A502D
:10019600D8B402EF01F004EF01F00750035CD8B4C5
:1001A600DAEF00F0D8A0F6EF00F0FCEF00F0065012
:1001B600025CD8B4E4EF00F0D8A0F6EF00F0FCEF54
:1001C60000F00550015CD8B4EEEF00F0D8A0F6EFD1
:1001D60000F0FCEF00F00450005CD8B406EF01F02C
:1001E600D8B0FCEF00F00A52D8B404EF01F002EFE9
:1001F60001F00A52D8B402EF01F004EF01F0D88002
:0E0206001200D8901200D880D8841200120086
:0C021400369048C04CF04ADF36801200E3
:10022000086A096A000E0762036495EF01F0025044
:1002300006180A6E075003267E0ED8A026EF01F09E
:10024000035ED8B099EF01F02AEF01F0035ED8A069
:100250009DEF01F0028E068E02C00EF001C00BF081
:1002600000C00DF000500402F4CF0CF00150050264
:10027000F4CF00F0F3CF08F00402F3500C26F45052
:100280000822000E00220D500502F3500C26F450F7
:100290000822000E002202500402F3500826F450F7
:1002A000002202500502016A000E0122F3500026CE
:1002B000F45001220D500602F3500826F45000229B
:1002C000026A000E012202220B500602F3500026A1
:1002D000F4500122000E02220E500602F3500126B5
:1002E000F450022202BE7DEF01F0083600360136DE
:1002F00002360306D8B49DEF01F090EF01F0D880EC
:10030000800E08640030000E002201220222D8A0D4
:1003100090EF01F0023201320032034A99EF01F00E
:100320000AAE029E000E9FEF01F0010EB6DE9FEFB7
:1003300001F0020EA6DE9FEF01F0040EF7DE1200C0
:1003400048C004F049C005F004C002F005C003F045
:10035000044A052A4AC000F04BC001F04A4A4B2A21
:1003600000C0E9FF01C0EAFF02C0E1FF03C0E2FFF5
:10037000EECFE6FF02C0E9FF03C0EAFFEE5201E064
:0C038000E3D748C000F049C001F01200B3
:10038C000C6A0E6A0250D8A4DFEF01F001C002F033
:10039C0000C001F0006A0E860250D8A4DFEF01F015
:1003AC0001C002F0016A0E960E880250D8B4F1EF2B
:1003BC0001F00E50035ED8A4D8A0F6EF01F0D8904F
:1003CC0002BEFBEF01F0003601360236032EE6EFDB
:1003DC0001F0F6EF01F0010E0C6E59DEFEEF01F0AC
:1003EC00020E0C6E9DDEFEEF01F0040E0C6E56DE5E
:0203FC001200ED
:1003FE00086A080E0C6E003408360450085ED8B039
:0E040E0002D00826D89000360C2EF5D712002A
:10041C000CB050EF02F00CA2F6EF02F00E6A000ED8
:10042C00026467EF02F0F00E0214D8A432EF02F06F
:10043C00023A01380F0B02260138F00B016E00381E
:10044C000F0B01260038F00B006E08380F0B00263E
:10045C000838F00B086E0E84D89002BE4BEF02F0F9
:10046C0008360036013602360E2A02BE4BEF02F079
:10047C0008360036013602360E2A02BE4BEF02F069
:10048C0008360036013602360E2A0E500364ECEFA5
:10049C0002F0035E0BBC08AEF1EF02F0D880800EC8
:1004AC0008640030000E002201220222D8A0F1EFD5
:1004BC0002F0023201320032034AF6EF02F0F1EFA1
:1004CC0002F001C002F000C001F008C000F0086AA0
:1004DC00000E0E8602649EEF02F0F00E0214D8A4F9
:1004EC0086EF02F0023A01380F0B02260138F00BAE
:1004FC00016E00380F0B01260038F00B006E0E84D5
:10050C00D89002BE4BEF02F00036013602360E2AAE
:10051C0002BE4BEF02F00036013602360E2A02BE46
:10052C004BEF02F00036013602360E2A4BEF02F08A
:10053C0001C002F000C001F0006A000E0E960E8899
:10054C000264CBEF02F0F00E0214D8A4B6EF02F066
:10055C00023A01380F0B02260138F00B016E0E84A3
:10056C00D89002BE4BEF02F0013602360E2A02BEC4
:10057C004BEF02F0013602360E2A02BE4BEF02F0B0
:10058C00013602360E2A4BEF02F001C002F0016A6E
:10059C00000E0E860264FBEF02F0F00E0214D8A4DB
:1005AC00DAEF02F0023A0E84D89002BE4BEF02F062
:1005BC0002360E2A02BE4BEF02F002360E2A02BEA3
:1005CC004BEF02F002360E2A4BEF02F0010E0C6ECE
:1005DC00A7DDFEEF02F0020E0C6E60DDFEEF02F006
:1005EC00040E0C6E48DDFEEF02F0080E0C6E4FDDB3
:0205FC001200EB
:1005FE000050086E0150006E016A026A036A0B6AAF
:10060E000C6A960E036E0A6A00C001F008C000F074
:08061E00086A026AB4DE120052
:100626000FD0800E3A6E19D0C00E3A6E16D0940EC8
:100636003A6E13D0D40E3A6E10D0800E3A6E0DD0AC
:100646003A50010AEEE03A50020AEEE03A50030A46
:10065600EEE03A50040AEEE0F0D73B04006E3A5062
:10066600002600C03AF000C04CF01FDD36903E6A0E
:100676003E503C24E96E000E3D20EA6EEE520BE041
:100686003E503C24E96E000E3D20EA6EEECF48F067
:0A069600BEDD3E2AEDD736801200CB
:1006A000466A476A3AC042F03BC043F03CC044F05F
:1006B0003DC045F04550FF0A08E14450FF0A05E1FE
:1006C0004350FF0A02E14250FF0A0CE13EC048F0ED
:1006D0003FC049F0190E4A6E000E4B6E31DE030E1C
:1006E000006EE5D1010E406E44AE0ED0800E44186F
:1006F000006E00C044F0402A3EC0E1FF3FC0E2FF70
:100700002D0EE66E3E4A3F2A000E006E451808E1A7
:100710000050441805E10050431802E14250000A1D
:100720000BE13EC048F03FC049F0210E4A6E000E7A
:100730004B6E06DE006ABBD14550FF0A08E144500B
:10074000000A05E14350000A02E14250000A0CE1B0
:100750003EC048F03FC049F01D0E4A6E000E4B6E81
:10076000EFDD40C000F0A3D1000E046E000E056E58
:10077000000E066E7F0E076E42C000F043C001F00F
:1007800044C002F045C003F0DEDC010ED8B0000E1C
:10079000006E00521BE042C000F043C001F044C0B4
:1007A00002F045C003F0000E046E000E056E200E30
:1007B000066E820E076E34DD00C042F001C043F0C9
:1007C00002C044F003C045F04706CED7000E046EC9
:1007D000000E056E200E066E820E076E42C000F0FF
:1007E00043C001F044C002F045C003F0ACDC000E91
:1007F000D8B0010E006E00521BE042C000F043C0B2
:1008000001F044C002F045C003F0CD0E046ECC0EE2
:10081000056E4C0E066E7B0E076E02DD00C042F0C8
:1008200001C043F002C044F003C045F0472ACED7D0
:10083000FF0E4214086EFF0E4314096E7F0E44141F
:100840000A6E000E45140B6E08C004F009C005F0D6
:100850000AC006F00BC007F00436049005360636D1
:100860000736000E4214006E000E4314016E000E97
:100870004414026EFF0E4514036E00C042F001C026
:1008800043F002C044F003C045F004504210006E33
:1008900005504310016E06504410026E075045107B
:1008A000036E00C042F001C043F002C044F003C038
:1008B00045F07F0E455C006E00C041F0010E456EB4
:1008C00000C004F042C000F043C001F044C002F098
:1008D00045C003F0045007E00036009001360236B0
:1008E0000336FF0FF8D700C042F001C043F002C04A
:1008F00044F003C045F03EC0E1FF3FC0E2FF455079
:10090000300FE66E3E4A3F2A800E4718006E800E7A
:10091000010A005C08E3800E060A006E800E47188C
:10092000005C01E30AD03EC0E1FF3FC0E2FF2E0EB3
:10093000E66E3E4A3F2A010E466E060E416E41505B
:10094000000A54E0456A42C000F043C001F044C0D0
:1009500002F045C003F0003600900136023603363F
:1009600000360090013602360336425000264350CE
:100970000122445002224550032200C042F001C02F
:1009800043F002C044F003C045F042C000F043C051
:1009900001F044C002F045C003F00036009001367B
:1009A0000236033600C042F001C043F002C044F0FA
:1009B00003C045F03EC0E1FF3FC0E2FF4550300FAD
:1009C000E66E3E4A3F2A4650000A0EE1470647506F
:1009D000000A0AE13EC0E1FF3FC0E2FF2E0EE66ED4
:1009E0003E4A3F2A010E466E4106A9D7FF0E3E241D
:1009F000E96EFF0E3F20EA6EEE50300A05E1010E6F
:100A00003E5E000E3F5AF2D7FF0E3E24E96EFF0E07
:100A10003F20EA6EEE502E0A04E1010E3E5E000E0B
:100A20003F5A4750000A3DE03EC0E1FF3FC0E2FFB1
:100A3000650EE66E3E4A3F2A800E4718006E800E15
:100A4000000A005C0BE23EC0E1FF3FC0E2FF2D0E5A
:100A5000E66E3E4A3F2A47500008476E47C041F0C5
:100A6000475009080EE20A0E046E41C000F0C7DCD0
:100A70003EC0E1FF3FC0E2FF0050300FE66E3E4A4D
:100A80003F2A0A0E046E41C000F0B9DC08C000F035
:100A90003EC0E1FF3FC0E2FF0050300FE66E3E4A2D
:100AA0003F2A3EC0E1FF3FC0E2FFE66A006A120053
:100AB000025006180E6E086A096A0B6A0350076432
:100AC0004BEF06F006500A6E068E028E03500B6E38
:100AD0000750036E000E0B649BEF05F00B50075E92
:100AE000D8B43CEF06F0070E07640AEF06F0075E85
:100AF00000C008F001C000F002C001F0026A074E19
:100B00003CEF06F00764DFEF05F0075E00C008F079
:100B100001C000F0016A074E3CEF06F00764BDEF2C
:100B200005F0075E00C008F0006A074E3CEF06F0D3
:100B30000764A4EF05F00AC002F005C001F004C08C
:100B400000F0086A68EF07F0030E0764AFEF05F0E6
:100B5000075E08380F0B086E074E3CEF06F0D89082
:100B60000832074E3CEF06F0D8900832074E3CEFB3
:100B700006F0D89008323CEF06F0030E0764CEEF83
:100B800005F0075E08380F0B086E0038F00B0826DA
:100B900000380F0B006E074E3CEF06F0D890003285
:100BA0000832074E3CEF06F0D89000320832074E6C
:100BB0003CEF06F0D890003208323CEF06F0030E0E
:100BC0000764F6EF05F0075E08380F0B086E003873
:100BD000F00B082600380F0B006E0138F00B0026D2
:100BE00001380F0B016E074E3CEF06F0D890013232
:100BF00000320832074E3CEF06F0D8900132003246
:100C00000832074E3CEF06F0D8900132003208322D
:100C10003CEF06F0030E076427EF06F0075E083886
:100C20000F0B086E0038F00B082600380F0B006E13
:100C30000138F00B002601380F0B016E0238F00B63
:100C4000012602380F0B026E074E3CEF06F0D890DB
:100C50000232013200320832074E3CEF06F0D890E3
:100C60000232013200320832074E3CEF06F0D890D3
:100C70000232013200320832096A000E0EAE30EF45
:100C800007F0081E001E011E021E082A0022012273
:100C9000022230EF07F00750D8A451EF06F068EFBA
:100CA00007F0096A02C00AF0028E068E0750035C44
:100CB000076ED8B423EF07F0070E0764F1EF06F0D4
:100CC000075E0450096E0550046E0650056E066AF4
:100CD000074E23EF07F0070E0764C6EF06F0075E26
:100CE0000450096E0550046E056A074E23EF07F0A5
:100CF000070E0764A4EF06F0075E0450096E046A4D
:100D0000074E23EF07F0070E07648BEF06F00AC0CB
:100D100002F068EF07F0030E076496EF06F0075E37
:100D200009380F0B096E074E23EF07F0D8900932F0
:100D3000074E23EF07F0D8900932074E23EF07F054
:100D4000D890093223EF07F0030E0764B5EF06F0E1
:100D5000075E09380F0B096E0438F00B09260438BA
:100D60000F0B046E074E23EF07F0D89004320932C0
:100D7000074E23EF07F0D89004320932074E23EFD5
:100D800007F0D8900432093223EF07F0030E07640E
:100D9000DDEF06F0075E09380F0B096E0438F00B23
:100DA000092604380F0B046E0538F00B04260538AD
:100DB0000F0B056E074E23EF07F0D8900532043273
:100DC0000932074E23EF07F0D8900532043209327A
:100DD000074E23EF07F0D89005320432093223EF93
:100DE00007F0030E07640EEF07F0075E09380F0BDC
:100DF000096E0438F00B092604380F0B046E053811
:100E0000F00B042605380F0B056E0638F00B05268F
:100E100006380F0B066E074E23EF07F0D890063208
:100E2000053204320932074E23EF07F0D89006321C
:100E3000053204320932074E23EF07F0D89006320C
:100E4000053204320932086A000E0EAE30EF07F0A8
:100E5000091E041E051E061E092A0422052206225A
:100E60000950082604500022055001220650022293
:100E70000EBE47EF07F0D8A056EF07F0023201325E
:100E800000320832033E56EF07F062EF07F0D8B0A9
:100E90005CEF07F0000E081E001E011E021E082A4D
:100EA0000022012202220A7E5CEF07F0010E0C6E86
:100EB0000EEC02F06AEF07F0020E0C6E0EEC02F080
:100EC0006AEF07F0040E0C6E41EC00F06AEF07F0D9
:060ED000000E0C6E120082
:100ED6000900F5CFE6FF0006FBE10106F9E1120085
:100EE600959695949598959A959C959E83968394B8
:100EF600839E839C839A83982EEC00F02EEC00F060
:100F06002EEC00F0838A8388838639EC00F0839682
:100F16002EEC00F0838639EC00F083962EEC00F080
:100F2600838639EC00F083962EEC00F08398838656
:100F360039EC00F083962EEC00F0838639EC00F055
:100F46008396839A838E838639EC00F083962EEC03
:100F560000F0839E8388838639EC00F0839683981D
:100F6600838639EC00F083962EEC00F0838639EC0C
:100F760000F083968388838639EC00F083962EEC06
:100F860000F08398838639EC00F08396838E838CF9
:100F9600838A8388838639EC00F083962EEC00F0F2
:040FA600368012007F
:100FAA00060E006EC3CF38F0000E396E005004E012
:100FBA003832389EFF0FFBD7000E396EC4CF00F0CF
:100FCA00000E016E003600900136003600900136A0
:100FDA0000503826015039222350010A18E138C03E
:100FEA0000F039C001F0FFEC02F0710E046E3D0E04
:100FFA00056E7A0E066E7D0E076E10EC01F000C0CB
:10100A0032F001C033F002C034F003C035F023508F
:10101A00020A21E138C000F039C001F0FFEC02F009
:10102A00710E046E3D0E056E7A0E066E7D0E076E0B
:10103A0010EC01F0330E046E930E056E080E066E68
:10104A00870E076E30DD00C032F001C033F002C0F7
:10105A0034F003C035F02350030A2BE138C000F006
:10106A0039C001F0FFEC02F0710E046E3D0E056E00
:10107A007A0E066E7D0E076E10EC01F0660E046E97
:10108A00660E056E660E066E7F0E076E10EC01F098
:10109A00000E046E000E056E000E066E840E076EBC
:1010AA0002DD00C032F001C033F002C034F003C0E8
:1010BA0035F032C03AF033C03BF034C03CF035C0B2
:1010CA003DF0240E3E6E000E3F6E50EC03F0010E12
:1010DA004C6E58EC00F0010E3A6E010E3B6E240E77
:1010EA003C6E000E3D6E13EC03F02350010A04E13E
:1010FA00430E486E0AEC01F02350020A04E14B0E3B
:10110A00486E0AEC01F02350030A04E1460E486EC9
:06111A000AEC01F01200D6
:10112000BBEC08F0010E966E846ADDDEC36AC46A09
:101130009380F29CD09E37B002D0F19C01D0F18C0C
:10114000F292F288F28EF19EC16A750EC26E9E9C7A
:101150009D8CF28CF28EF294F28A850ED56E0D0E75
:0A116000D76E080ED66EFFD7FFD73A
:1011760010EE19F00B0E006E010E016E6A0EF66E81
:0E118600110EF76E000EF86E6BEC07F0120003
:04116A004E614E0084
:04116E00494E4600A0
:0211720030004B
:011174000179
:020000040030CA
:0D000100220F0EFF0181FF0FC00FE00F4026
:00000001FF
