:1000000016EF00F00000000000EF00F0000000001C
:0A0010000000000000000000F3D71C
:10001C000900F5CFE6FF0006FBE10106F9E112004D
:10002C00946A010E826E030E0B6E080E0C6E770E28
:10003C000D6E0D2EFED70C2EFCD70B2EFAD782CFC1
:10004C0000F00036009000C082FF020E0B6E040E12
:10005C000C6EBA0E0D6E0D2EFED70C2EFCD70B2E81
:10006C00FAD700008250000A02E1010E826EDBD743
:02007C00FFD7AC
:020000040030CA
:0D000100220F0EFF0181FF0FC00FE00F4026
:00000001FF
