:040000008DEF01F08F
:1000080000C018F001C017F00CC016F00DC015F0B4
:100018001950110A05E1010E196E010E2C6E52D805
:100028000FD900C01AF0010E1D6E19C01EF000C0D5
:100038001FF086D8192A81CF1BF0F29018C000F063
:0E00480017C001F016C00CF015C00DF011002D
:100056000F0E0C6E470E0D6E0D2EFED70C2EFCD716
:0600660000000000120082
:06006C000000000012007C
:0A007200210E0D6E0D2EFED71200B8
:10007C000B6A0A6A096A00500402F4CF09F0F3CF44
:10008C0008F001500502F4CF0BF0F3CF0AF000504A
:10009C000502F3500926F4500A22E86A0B2201509B
:1000AC000402F3500926F4500A22E86A0B2208C015
:1000BC0000F009C001F00AC002F00BC003F01200FE
:1000CC002CBE02D0839E01D0838E2CBC02D0839C8C
:1000DC0001D0838C2CBA02D0839A01D0838A2CB89D
:1000EC0002D0839801D083881CB002D0838401D0C5
:1000FC0083948386B5DF83962CB602D0839E01D081
:10010C00838E2CB402D0839C01D0838C2CB202D071
:10011C00839A01D0838A2CB002D0839801D0838833
:10012C001CB002D0838401D08394838699DF83969C
:0C013C001CA002D08ADF01D096DF120068
:100148000FD0800E1D6E19D0C00E1D6E16D0940EE5
:100158001D6E13D0D40E1D6E10D0800E1D6E0DD0E6
:100168001D50010AEEE01D50020AEEE01D50030A80
:10017800EEE01D50040AEEE0F0D71E04006E1D509C
:10018800002600C01DF01C8000C02CF09BDF1C90D6
:0A0198001FC02CF097DF1C8012003E
:1001A200959695949598959A959C959E8396839409
:1001B200839E839C839A83984DDF4CDF4BDF838A37
:1001C2008388838652DF839645DF83864EDF83965C
:1001D20041DF83864ADF83963DDF8398838645DF4E
:1001E200839638DF838641DF8396839A838E838664
:1001F2003CDF83962FDF839E8388838636DF839658
:100202008398838632DF839625DF83862EDF83966B
:10021200838883862ADF83961DDF8398838625DF82
:100222008396838E838C838A838883861EDF83965C
:0602320011DF1C80120028
:100238000900F5CFE6FF0006FBE10106F9E112002F
:100248001E6A100E1F6E310E206E320E216E330E96
:10025800226E340E236E350E246E360E256E370E42
:10026800266E380E276E390E286E2A0E296E300E2D
:100278002A6E230E2B6E1A0E0C6EF80E0D6E0D2EB6
:10028800FED70C2EFCD700001D6A040E1D5C0BE285
:100298001F508114016E0150000A01E104D01F367D
:1002A8001F901D2AF2D7010E816EF00E8114016E87
:1002B8000150F00A08E081CF00F00036009000C03D
:1002C80081FF1E2AF2D7816A060E0C6E300E0D6E63
:1002D8000D2EFED70C2EFCD70000F00E8114016EF7
:1002E8000150F00AF1E1030E006E000E016E1DC010
:1002F80004F0000E056EBEDE200E0026000E012260
:100308001E500024E96E000E0120EA6EEECF00F0C8
:020318001200D1
:10031A00010E196EF00E936E816A3EDFF19E81CF57
:0A032A001BF0F290F286F28EFFD76E
:020000040030CA
:0D000100220F0EFF0181FF0FC00FE00F4026
:00000001FF
