:040000005DEF01F0BF
:1000080000C018F001C017F00CC016F00DC015F0B4
:10001800BA0E1902F3CF00F000C019F000C020F0AA
:100028001A0E216E000E226E0BD9010E206E010EE3
:10003800216E1A0E226E000E236E72D881CF1EF02A
:10004800F29018C000F017C001F016C00CF015C0EF
:040058000DF0110096
:06005C000000000012008C
:100062000F0E0C6E470E0D6E0D2EFED70C2EFCD70A
:0600720000000000120076
:0A007800210E0D6E0D2EFED71200B2
:1000820027BE02D0829E01D0828E27BC02D0829CE3
:1000920001D0828C27BA02D0829A01D0828A27B8F4
:1000A20002D0829801D082881FB002D0828401D00F
:1000B20082948286D2DF829627B602D0829E01D0B7
:1000C200828E27B402D0829C01D0828C27B202D0C9
:1000D200829A01D0828A27B002D0829801D0828887
:1000E2001FB002D0828401D082948286B6DF8296CB
:0C00F2001FA002D0B5DF01D0BEDF12005D
:1000FE00086A080E0C6E003408360450085ED8B03C
:0E010E0002D00826D89000360C2EF5D712002D
:0C011C001F9026C027F0AFDF1F801200EC
:100128000FD0800E206E19D0C00E206E16D0940EFF
:10013800206E13D0D40E206E10D0800E206E0DD0FD
:100148002050010AEEE02050020AEEE02050030A97
:10015800EEE02050040AEEE0F0D72104006E2050B3
:10016800002600C020F000C027F087DF1F90246A17
:1001780024502224E96E000E2320EA6EEE520BE092
:1001880024502224E96E000E2320EA6EEECF26F0DA
:0A019800C1DF242AEDD71F801200FA
:1001A2000900F5CFE6FF0006FBE10106F9E11200C6
:1001B200949694949498949A949C949E8296829401
:1001C200829E829C829A82984BDF4ADF49DF828A32
:1001D2008288828642DF829643DF82863EDF829673
:1001E2003FDF82863ADF82963BDF8298828635DF66
:1001F200829636DF828631DF8296829A828E82866C
:100202002CDF82962DDF829E8288828626DF82966E
:100212008298828622DF829623DF82861EDF829682
:10022200828882861ADF82961BDF8298828615DF99
:100232008296828E828C828A828882860EDF829663
:060242000FDF1F80120017
:10024800236A030E235C0AE223502124E16E000E88
:100258002220E26E200EE66E232AF3D723502124B3
:10026800E16E000E2220E26EE66A23062350212466
:10027800246E000E2220256E0A0E046E20C000F0A7
:100288003ADF08C000F0300E002624C0E1FF25C088
:10029800E2FF00C0E6FF0A0E046E20C000F02BDF6C
:1002A80000C020F00050000A01E102D02306DED78A
:0202B800120032
:1002BA00196A7ADF100E936E816A010E816E0D0E35
:1002CA000C6EFB0E0D6E0D2EFED70C2EFCD7000009
:1002DA000000816AF19E81CF1EF0F290F286F28EC2
:0402EA00FFD7FFD764
:020000040030CA
:0D000100220F0EFF0181FF0FC00FE00F4026
:00000001FF
